:020000040800F2
:100000000050002091070008C5070008C707000836
:10001000C9070008CB070008CD0700080000000052
:10002000000000000000000000000000CF070008F2
:10003000D107000800000000D3070008D50700081A
:10004000D9070008DB070008DD070008DF07000804
:10005000E1070008E3070008E5070008E7070008D4
:10006000E9070008EB070008ED070008EF070008A4
:10007000F1070008F3070008F5070008F707000874
:10008000F9070008FB070008FD070008FF07000844
:100090000108000803080008050800080708000810
:1000A000090800080B0800080D0800080F080008E0
:1000B00011080008130800081508000817080008B0
:1000C000190800081B0800081D0800081F08000880
:1000D0002108000823080008250800082708000850
:1000E000290800082B0800082D08000810B5054C49
:1000F000237833B9044B13B10448AFF300800123D4
:10010000237010BD8C04002000000000F80F0008D0
:1001100008B5064B1BB106480649AFF300800648F8
:10012000036813B1054B03B1984708BD00000000F8
:10013000F80F0008900400208C040020000000004C
:10014000154B002B08BF134B9D46A3F5803A0021A9
:100150008B460F461348144A121A00F03FFE0F4B0D
:10016000002B00D098470E4B002B00D09847002062
:10017000002104460D4600200C490022002300F017
:1001800087FD00F003FE2046294600F073FA00F0D8
:10019000D7FD00BF00000800005000200000000054
:1001A000000000008C040020C4040020610D000841
:1001B00010B50820012100F04FFD0120014600F09C
:1001C0004BFD01214FF4001000F054FD40F2A84314
:1001D00048F2A062C2F20003C0F201021A600022DB
:1001E0004FF480449A804BF6FF72DA802004152287
:1001F00019461A8140F4A8404FF480625A819C81CC
:1002000000F004FC40F2B843C2F20003C0221A809E
:100210004FF440601C221946DA70C4F20100032238
:100220009A7000F093FB200440F4A8400121BDE83F
:10023000104000F05FBC00BF70B504460D46164686
:1002400020464FF4003100F097FC0028F8D12046FA
:10025000012100F05DFC01212046C0F2030100F005
:100260007FFC0028F7D07100204601F0FE012A46ED
:1002700000F06CFC55B1012D07D102212046C0F2DF
:10028000030100F06DFC0028F7D070BD82212046EC
:10029000C0F2070100F064FC0028F7D070BD00BF79
:1002A00010B5044600F050FC84212046C0F207013E
:1002B00000F056FC0028F7D010BD00BF70B54FF419
:1002C000A84440F2BC45C4F20004C2F20005064650
:1002D00000212A782046FFF7AFFFE9792046314315
:1002E000FFF7DEFF20460121BDE8704000F01EBC94
:1002F00040F2BC43C2F2000308220020DA71FFF78B
:10030000DDBF00BF002240F2BC43C2F20003104632
:10031000DA71FFF7D3BF00BF10B5044640F0040008
:10032000FFF7CCFF012000F0FFF804F0FB00FFF71F
:10033000C5FF3220BDE8104000F0F6B810B5044605
:10034000FFF7BCFF2046BDE81040FFF7E5BF00BF48
:1003500038B5044620F00F0008430D46FFF7EEFFC6
:1003600045EA0410C0B2BDE83840FFF7E7BF00BF60
:100370000021FFF7EDBF00BF40F2BC43C2F2000313
:10038000987840F0040240F00C009A70FFF7F0BF3C
:10039000F0B40D4A0C46157984B00C4B04AFA5425D
:1003A00006460FCB07E90F0001D26C1EE4B204AB86
:1003B00003EB840454F8100C361866F07F00C0B2CA
:1003C00004B0F0BCFFF7D4BFBC040020840F0008C9
:1003D000022008B5FFF7CCFF40F6B830BDE8084072
:1003E00000F0A2B8012008B5FFF7C2FF40F6B83010
:1003F000BDE8084000F098B80121FFF7A9BF00BF91
:1004000000F00700C00038B540F040000D46FFF78F
:10041000AFFF0024285D0134FFF7EEFF082CF9D16F
:1004200038BD00BF10B51F4C012988BF637821710A
:1004300084BF43F008036370322000F059F8E0797C
:10044000FFF73CFF4FF47A7000F052F83020FFF7CE
:1004500075FF41F2941000F067F83020FFF76EFF4F
:1004600041F2941000F060F83020FFF767FF96200B
:1004700000F05AF82020FFF761FF607840F020007C
:10048000FFF776FF0423A370FFF776FFFFF7AAFFBD
:1004900002230620E370FFF76BFFBDE81040FFF773
:1004A00097BF00BFBC040020F8B540F2BC44C2F2C4
:1004B000000400250E46174661712070A271E57197
:1004C000FFF776FE304639466570BDE8F840FFF725
:1004D000A9BF00BF38B50546007838B10024013403
:1004E000E4B2FFF789FF285D0028F8D138BD00BFCE
:1004F00010B586B0044601A800F05AFB41F25973CA
:10050000029ACDF2B713A3FB02135B0B03FB04F4B7
:100510000094009B2BB1009B013B0093009B002BA0
:10052000F9D106B010BD00BF10B586B0044601A8D1
:1005300000F03EFB4CF66B23029AC6F65F33A3FB3A
:1005400002139B0D03FB04F40094009B2BB1009B52
:10055000013B0093009B002BF9D106B010BD00BFFA
:1005600070B408B30478FCB1431C19460D780A46F0
:100570000131002DFAD1013A904215D2013A01E041
:1005800013F8014C51781546614003F8011C567868
:100590001C467140517013F8016C013A714003F828
:1005A000011C0133AC42EBD370BC7047F0B480EA5D
:1005B000E074A4EBE07400250B4F00E0354694FB9B
:1005C000F2F302FB13443C5D6E1C4C551C1EF5DC23
:1005D000002802DA2D238B55AE1C002308468B55CC
:1005E000F0BCFFF7BDBF00BF940F000830B5002579
:1005F00085B0FFF7F7FE02200146FFF7C9FE1A4853
:10060000FFF768FF00200146FFF7C2FE01A90A229A
:100610002846FFF7CBFF1548FFF75CFF01A8FFF75F
:1006200059FF01A90A2205F11300FFF7BFFF104887
:10063000FFF750FF01A8FFF74DFF00200121FFF752
:10064000A7FE00242819C0B20134FFF7D5FE142CF0
:10065000F8D1F02D06D04FF4FA601035FFF748FFBF
:10066000EDB2C6E705B030BDBC0F0008D00F0008E2
:10067000DC0F000810B540F6B830FFF739FF27202F
:1006800014210422FFF710FF0324FFF731FEFA20A4
:10069000FFF72EFFFFF736FEFA20FFF729FF013C98
:1006A000F3D1FFF725FE3520FFF7A6FE4FF4FA60E1
:1006B000FFF71EFFFFF796FEFFF798FF4FF4FA6073
:1006C000FFF716FF20462949FFF79AFE0120284927
:1006D000FFF796FE02202749FFF792FE03202649E6
:1006E000FFF78EFE04202549FFF78AFE05202449E6
:1006F000FFF786FE06202349FFF782FE22490720E6
:10070000FFF77EFEFFF76EFE2048FFF7E3FE21466F
:100710001020FFF73DFE2046FFF76EFE0120FFF799
:100720006BFE0220FFF768FE0320FFF765FE012144
:100730001020FFF72DFE0420FFF75EFE0520FFF7D7
:100740005BFE0620FFF758FE0720FFF755FE02214B
:100750001020FFF71DFEC920FFF74EFEB120FFF766
:100760004BFEA220FFF748FE10BD00BF080000208E
:100770003000002010000020180000202000002081
:10078000280000200000002038000020E00F0008B2
:100790000749084A084B9A42BEBF51F8040B42F879
:1007A000040BFFF7F8BF05488047054800470000E5
:1007B00004100008000000208C040020310800080C
:1007C00041010008FEE7FEE7FEE7FEE7FEE7FEE781
:1007D000FEE7FEE7FEE7FEE7FEE7FEE7FEE7FEE7F1
:1007E000FEE7FEE7FEE7FEE7FEE7FEE7FEE7FEE7E1
:1007F000FEE7FEE7FEE7FEE7FEE7FEE7FEE7FEE7D1
:10080000FEE7FEE7FEE7FEE7FEE7FEE7FEE7FEE7C0
:10081000FEE7FEE7FEE7FEE7FEE7FEE7FEE7FEE7B0
:10082000FEE7FEE7FEE7FEE7FEE7FEE7FEE700BFC6
:100830004FF48053C4F202031968002241F0010111
:1008400019605968CFF6FF020A405A601A68002101
:1008500022F0847222F480321A601A6882B022F484
:1008600080221A6058681A4620F4FE0058604FF43F
:100870001F00986000910191196841F4803119605E
:1008800003E0009BB3F5A06F09D0136803F40033B5
:100890000193009B01330093019B002BF1D04FF497
:1008A0008053C4F202031B6813F4003308BF0193A2
:1008B00001D001230193019B012B08D04FF46D431C
:1008C000CEF200034FF000629A6002B070474FF41E
:1008D0000052C4F2020211684FF4805341F010013B
:1008E00011601168C4F2020321F003011160106865
:1008F000194640F0020010605A685A605A685A60FF
:100900005A6842F480625A605A6822F47C125A6033
:100910005A6842F4E8125A601A6842F080721A600B
:100920000A684FF480539201C4F20203F8D5596863
:100930001A4621F003015960596841F002015960DB
:10094000536803F00C03082BFAD1B7E72DE9F00345
:10095000CD78EB0648BF8B78098805F00F0748BFB4
:100960001F4311F0FF0F24D0D0F800C00023012650
:100970004FF00F0802E00133082B18D006FA03F2FB
:1009800002EA01049442F6D19A0008FA02F907FA41
:1009900002F22CEA090C282D4CEA020C08BF446133
:1009A000E9D0482D08BF04610133082BE6D1C0F817
:1009B00000C0FF2926D9D0F804C0002301264FF03B
:1009C0000F0802E00133082B1AD003F1080206FADF
:1009D00002F202EA01049442F4D19A0008FA02F900
:1009E00007FA02F22CEA090C282D4CEA020C08BF87
:1009F0004461E7D0482D08BF04610133082BE4D1DE
:100A0000C0F804C0BDE8F003704700BFF0B587B080
:100A10000446868801A80D4600F0CAF803994DF6F1
:100A20008363C4F21B33A3FB012326F03F069F0C14
:100A30003604360C1FFA87FC4CEA0606A68023888B
:100A40002A6848F2A06023F001031B04C0F20100F1
:100A50001B0C8242238024D85200B1FBF2F189B2F0
:100A60000CF1010CA4F820C0032998BF0421A18334
:100A700023886E899BB243F0010323802388A888D2
:100A800023F4816323F002032989AA891B041B0C28
:100A9000304303430A439BB292B22380228107B0C2
:100AA000F0BDE8884BF6FF7398421DBF02EB82024F
:100AB00002EB8202B1FBF2F102EB42020CBFB1FB8E
:100AC000F2F141F4804189B20B051B0D0BB941F0E5
:100AD00001014FF4967202FB07F744F6D352C1F2BC
:100AE000620282FB07329209013241F40041228402
:100AF000BDE700BF038829B923F001031B041B0CC9
:100B0000038070479BB243F001030380704700BF2E
:100B1000038829B923F480731B041B0C03807047DE
:100B20009BB243F480730380704700BF038829B9E8
:100B300023F400731B041B0C038070479BB243F427
:100B400000730380704700BF018270471AB901F03B
:100B5000FE010182704741F001010182704700BF30
:100B6000838A028B9BB243EA0240084020F07F4018
:100B70000B1A58425841704782B000230A0F009365
:100B8000019301900092009B21F07F4153B1019BA2
:100B900014330193019B1B6819420CBF00200120F4
:100BA00002B07047019B090C18330193F2E700BFB4
:100BB0004FF48053C4F202035A6810B402F00C02DE
:100BC000042A01D0082A28D04FF49052C0F27A02A9
:100BD00002604FF48053C4F202035C681C49C4F302
:100BE00003140C5D22FA04F242605C68C4F3022430
:100BF0000C5D22FA04F484605C68C4F3C224095DCD
:100C000022FA01F2C2605B681249C3F38133CB5C04
:100C1000B2FBF3F2026110BC70475A685968C2F324
:100C200083420232CC030AD55B68990307D44FF4A0
:100C30009053C0F27A0303FB02F20260C9E74FF45B
:100C40001063C0F23D0303FB02F20260C1E700BF84
:100C500044000020400000204FF48053C4F20203FF
:100C60009A6919B922EA00009861704710439861A7
:100C7000704700BF4FF48053C4F20203DA6919B918
:100C800022EA0000D86170471043D861704700BF66
:100C90002DE9F041284C84B025680746D5F8484135
:100CA000002C43D066681F2E1CDD244810B94FF07D
:100CB000FF301FE04FF4C870039102920193AFF32D
:100CC000008003990446029A019B0028EFD0D5F8D2
:100CD0004861002060602660C5F84841C4F888017A
:100CE000C4F88C01656847B9AB1C013544F8231082
:100CF0006560002004B0BDE8F081012000FA05F035
:100D0000022F04EB8508D4F88861C8F8083108BFC1
:100D1000D4F88C3146EA000608BF1843C8F888208A
:100D2000C4F8886108BFC4F88C01DDE705F5A67436
:100D3000C5F84841B6E700BFF40F00080000000006
:100D400008B50021044600F09DF8044B1868C36BF9
:100D500003B19847204600F007F900BFF40F0008E0
:100D600038B5084D084C641BA41018BF05EB84056A
:100D700004D055F8043D9847013CFAD1BDE838400D
:100D800000F0FAB8880400208C04002070B50F4DE4
:100D90000F4E761BB61007D0043D002455F8043FD3
:100DA00001349847A642F9D10A4D0B4E00F0DEF807
:100DB000761BB61008D0043D002455F8043F0134DA
:100DC0009847A642F9D170BD70BD00BF80040020D5
:100DD00080040020800400208804002070B4840770
:100DE000034642D0541E002A3DD0CEB203E0621E1C
:100DF000002C38D0144603F8016B9A071D46F6D133
:100E0000032C29D9CAB20F2C42EA022242EA02423A
:100E100084BF2B46264611D9103E1A605A609A604C
:100E2000DA6010330F2EF7D8A4F1100323F00F036C
:100E300004F00F041033032C1D440DD92E46234615
:100E4000043B032B46F8042BFAD8231F23F003039B
:100E5000043304F00304ED182CB1C9B22C1905F8C1
:100E6000011BA542FBD170BC704705461446C7E77D
:100E7000024B13B1024800F071B870470000000047
:100E8000610D00082DE9F04F334B85B01B680290CF
:100E9000019303F5A4730F4603934FF00108019BE0
:100EA000DDF80CB0D3F84861AEB175686C1E0CD497
:100EB00006F188091F3509EB85057FB12B68BB4218
:100EC0000CD0013C043D631CF7D140F20001C0F29C
:100ED0000001002930D105B0BDE8F08F7368C9EB7F
:100EE0000502591EB218A14252F8783C08BF74603E
:100EF00002D0002142F8781C002BE2D008FA04F25C
:100F0000D6F88811D6F804A00A420FD0D6F88C1172
:100F10000A420DD1029855F8801C984773685345D2
:100F2000BDD1DBF80030B342CBD0B8E79847F5E746
:100F300055F8800C9847F1E773684BB9336843B1B3
:100F40003046CBF80030AFF30080DBF80060ABE751
:100F50003368B3461E46A7E7F40F00080146002099
:100F600002460346FFF794BEFEE700BFF8B500BF98
:100F7000F8BC08BC9E467047F8B500BFF8BC08BC7A
:100F80009E46704700000000400000001400000072
:100F9000540000003031323334353637383961622D
:100FA000636465666768696A6B6C6D6E6F70717299
:100FB000737475767778797A0000000048656C6CF8
:100FC0006F204861627261686162722021000000D6
:100FD000436F646573203078000000002D30780086
:100FE00048656C6C6F204861627261686162720072
:0C0FF0004300000058000020000000003A
:080FFC0044F1FF7F0100000039
:101004001D1D1D1A1B0D1908000002030D07070FF3
:101014001009171C0C1F0D1D0010000010001418DF
:10102400150D0B0D050305061F1F1F1F1F07190EA6
:101034000001071B1E0F1F1F1810021C1F000000B9
:101044000204060800000000010203040102030474
:101054000607080900000000000000004403002007
:10106400AC03002014040020000000000000000075
:10107400000000000000000000000000000000006C
:10108400000000000000000000000000F00F000855
:10109400000000000000000000000000000000004C
:1010A400000000000000000000000000000000003C
:1010B400000000000000000000000000000000002C
:1010C400000000000000000000000000000000001C
:1010D400000000000000000000000000000000000C
:1010E40000000000000000000000000000000000FC
:1010F40000000000000000000000000000000000EC
:1011040001000000000000000E33CDAB34126DE688
:10111400ECDE05000B0000000000000000000000F1
:1011240000000000000000000000000000000000BB
:1011340000000000000000000000000000000000AB
:10114400000000000000000000000000000000009B
:10115400000000000000000000000000000000008B
:0C148400710E000811010008ED000008C6
:040000050800079157
:00000001FF
